:100000000C942B010C94B9020C94EA020C941B037F
:100010000C944C030C947D030C94AE030C94DF03FE
:100020000C9410040C9457010C9457010C94570134
:100030000C9457010C944F0A0C9457010C945701DF
:100040000C9457010C9457010C9457010C945701D0
:100050000C9457010C9457010C9457010C943F05D4
:100060000C9457010C9427060C9457010C945701DB
:100070000C9457010C9457010C9457010C945701A0
:100080000C9457010C9457010C9457010C94570190
:100090000C945C060C9457010C9457010C94570176
:1000A0000C9457010C9457010C9457010C94570170
:1000B0000C9457010C9457010C9457010C94570160
:1000C0000C9457010C9457010C9457010C94910611
:1000D0000C9457010C9457010C94C6060C945701CC
:1000E0000C945701084AD73B3BCE016E84BCBFFD40
:1000F000C12F3D6C74319ABD56833DDA3D00C77FF8
:1001000011BED9E4BB4C3E916BAAAABE0000008090
:100110003F05A84CCDB2D44EB93836A9020C50B91F
:10012000918688083CA6AAAA2ABE000000803F004B
:10013000002100240027002A002D00300033000198
:10014000010000040107010A010000220025002827
:10015000002B002E003100340002010000050108D0
:10016000010B01000020002300260029002C002F95
:100170000032000001000003010601090105050528
:1001800005070508080808020202020A0A0808040E
:10019000040404010101010101010103030303033C
:1001A000030303040707070C0C0C0C0C0C0C0C02CB
:1001B00002020206060606060606060B0B0B0B0BD2
:1001C0000B0B0B01021020200808102040102040CB
:1001D000800201020108040201010204081020400B
:1001E0008080402010080402018004020180402029
:1001F0001008040201080402010102040810204052
:100200008001020408102040800000090A02080B47
:100210000C0D0706030401000000000000000000B0
:1002200000000000000000000000000000000000CE
:100230000000000000100F0E000000000000000091
:1002400000000000000000000000000000000002AC
:10025000C6075213DF1311241FBECFEFD1E2DEBF5A
:10026000CDBF00E00CBF12E0A0E0B2E0E0E6F3E5B5
:1002700000E00BBF02C007900D92A632B107D9F77C
:1002800016E0A6E2B2E001C01D92A738B107E1F77F
:1002900012E0C6E5D2E004C02297FE010E947F284A
:1002A000C035D107C9F70E9436020C94AE290C94D0
:1002B0000000EF92FF920F931F930E9495056093A9
:1002C000260270932702809328029093290280E1EE
:1002D00061E00E94DA040E946D1D8091C2048823AF
:1002E00011F00E94F3228091C204882309F072C0A9
:1002F0008091AA049091AB04009739F48FE696E0C0
:1003000061E776E00E94DF1665C08130910539F41F
:100310008FE696E061E776E00E945F1C5BC082306A
:10032000910539F48FE696E061E776E00E945C186B
:1003300051C08330910589F48091B6049091B7043F
:10034000A091B804B091B904809373069093740699
:10035000A0937506B093760613C084309105A1F47E
:100360008091BA049091BB04A091BC04B091BD04EB
:100370008093770690937806A0937906B0937A06D7
:1003800081E08093C20426C08530910589F4809174
:10039000BE049091BF04A091C004B091C1048093A9
:1003A0007F0690938006A0938106B0938206E8CFE3
:1003B0008630910539F48FE696E061E776E00E9499
:1003C0001E1608C0079731F48FE696E061E776E0E5
:1003D0000E94761680916F06909170060E947C13A1
:1003E00080917106909172060E945F130E94DD1445
:1003F00080E160E00E94DA04E0902602F09027029B
:1004000000912802109129020E949505A8019701E8
:100410002053384F4F4F5F4F261B370B480B590B5C
:1004200012161306140615061CF4C9010E94BB051A
:100430001F910F91FF90EF90089510927006109207
:100440006F0610927206109271060E94E2230E94BB
:1004500098130E94D5130E94C41F0E9465240E9415
:10046000DF1E80E161E00E94410408950E94C505FD
:100470000E941D020E945901FDCF883008F078C00B
:10048000E82FF0E0EE0FFF1FE65DFD4F7183608304
:100490008330D9F0843030F4813009F444C08230A4
:1004A00060F439C0853051F18530D8F0863009F4D8
:1004B00046C0873009F05CC04FC0809169008C7FD6
:1004C000842B80936900E89A089580916900440F15
:1004D000551F440F551F837F842B80936900E99A31
:1004E00008958091690074E0440F551F7A95E1F7F3
:1004F0008F7C842B80936900EA9A0895809169002B
:1005000066E0440F551F6A95E1F78F73842B809343
:100510006900EB9A089580916A008C7F842B809308
:100520006A00EC9A089580916A00440F551F440FA9
:10053000551F837F842B80936A00ED9A08958091E4
:100540006A0024E0440F551F2A95E1F78F7C842B25
:1005500080936A00EE9A089580916A0096E0440FB5
:10056000551F9A95E1F78F73842B80936A00EF9A59
:1005700008951F920F920FB60F920BB60F9211248F
:100580002F933F934F935F936F937F938F939F939B
:10059000AF93BF93EF93FF9380912E0290912F0220
:1005A000892B29F0E0912E02F0912F021995FF91ED
:1005B000EF91BF91AF919F918F917F916F915F91DB
:1005C0004F913F912F910F900BBE0F900FBE0F9048
:1005D0001F9018951F920F920FB60F920BB60F92A5
:1005E00011242F933F934F935F936F937F938F9338
:1005F0009F93AF93BF93EF93FF93809130029091BD
:100600003102892B29F0E0913002F09131021995E5
:10061000FF91EF91BF91AF919F918F917F916F91DA
:100620005F914F913F912F910F900BBE0F900FBE96
:100630000F901F9018951F920F920FB60F920BB646
:100640000F9211242F933F934F935F936F937F9358
:100650008F939F93AF93BF93EF93FF938091320259
:1006600090913302892B29F0E0913202F09133020C
:100670001995FF91EF91BF91AF919F918F917F91CC
:100680006F915F914F913F912F910F900BBE0F9003
:100690000FBE0F901F9018951F920F920FB60F92DA
:1006A0000BB60F9211242F933F934F935F936F9349
:1006B0007F938F939F93AF93BF93EF93FF9380911B
:1006C000340290913502892B29F0E0913402F091A7
:1006D00035021995FF91EF91BF91AF919F918F9145
:1006E0007F916F915F914F913F912F910F900BBE32
:1006F0000F900FBE0F901F9018951F920F920FB67C
:100700000F920BB60F9211242F933F934F935F9349
:100710006F937F938F939F93AF93BF93EF93FF93C9
:1007200080912A0290912B02892B29F0E0912A02D4
:10073000F0912B021995FF91EF91BF91AF919F918D
:100740008F917F916F915F914F913F912F910F907A
:100750000BBE0F900FBE0F901F9018951F920F9217
:100760000FB60F920BB60F9211242F933F934F9316
:100770005F936F937F938F939F93AF93BF93EF9309
:10078000FF9380912C0290912D02892B29F0E0910A
:100790002C02F0912D021995FF91EF91BF91AF912D
:1007A0009F918F917F916F915F914F913F912F9189
:1007B0000F900BBE0F900FBE0F901F9018951F92B9
:1007C0000F920FB60F920BB60F9211242F933F93F7
:1007D0004F935F936F937F938F939F93AF93BF9349
:1007E000EF93FF938091360290913702892B29F085
:1007F000E0913602F09137021995FF91EF91BF9188
:10080000AF919F918F917F916F915F914F913F91A8
:100810002F910F900BBE0F900FBE0F901F90189549
:100820001F920F920FB60F920BB60F9211242F93B7
:100830003F934F935F936F937F938F939F93AF9368
:10084000BF93EF93FF938091380290913902892BE7
:1008500029F0E0913802F09139021995FF91EF915A
:10086000BF91AF919F918F917F916F915F914F91C8
:100870003F912F910F900BBE0F900FBE0F901F90C6
:100880001895482F50E0CA018D539E4FFC012491CA
:1008900043585E4FFA0184918823C1F0E82FF0E0BD
:1008A000EE0FFF1FE15DFE4FA591B491662341F469
:1008B0009FB7F8948C91209582238C939FBF0895C5
:1008C0009FB7F8948C91822B8C939FBF08958930A9
:1008D00009F448C08A30A0F4843049F1853040F4EE
:1008E000823071F18330F8F4813009F062C025C0A4
:1008F000873071F1883090F5863009F05AC024C0F5
:100900008D3009F441C08E3028F48B30A9F18C3041
:10091000B8F52CC08F3009F441C08F30D8F1803148
:1009200009F047C041C0809180008F7703C080915B
:1009300080008F7D80938000089584B58F7702C0FA
:1009400084B58F7D84BD08958091B0008F7703C0FA
:100950008091B0008F7D8093B000089580919000C9
:100960008F7707C0809190008F7D03C080919000A9
:10097000877F8093900008958091A0008F7707C0B3
:100980008091A0008F7D03C08091A000877F80931D
:10099000A0000895809120018F7703C080912001ED
:1009A0008F7D80932001089580912001877F80931F
:1009B00020010895FF920F931F93F62E482F50E0C9
:1009C000CA01875F9D4FFC012491CA018D539E4F40
:1009D000FC01149143585E4FFA0104910023D9F0B1
:1009E000222319F0822F0E946704E02FF0E0EE0F1F
:1009F000FF1FE75BFE4FA591B491FF2031F49FB735
:100A0000F8948C911095812304C09FB7F8948C9131
:100A1000812B8C939FBF1F910F91FF9008950F938F
:100A20001F93482F50E0CA01875F9D4FFC0124911E
:100A3000CA018D539E4FFC01049143585E4FFA0149
:100A40001491112319F420E030E015C0222319F08D
:100A5000822F0E946704812F90E0880F991F8D5983
:100A60009E4FFC01A591B4918C9120E030E0802351
:100A700011F021E030E0C9011F910F9108951F92FC
:100A80000F920FB60F9211242F933F938F939F9342
:100A9000AF93BF9380913E0290913F02A09140029C
:100AA000B0914102309142020196A11DB11D232F48
:100AB0002D5F2D3720F02D570196A11DB11D2093DC
:100AC000420280933E0290933F02A0934002B09373
:100AD000410280913A0290913B02A0913C02B09178
:100AE0003D020196A11DB11D80933A0290933B02F5
:100AF000A0933C02B0933D02BF91AF919F918F9123
:100B00003F912F910F900FBE0F901F9018958FB7A8
:100B1000F89420913E0230913F0240914002509162
:100B200041028FBFB901CA0108959FB7F89420917F
:100B30003A0230913B0240913C0250913D0286B511
:100B4000A89B06C08F3F21F02F5F3F4F4F4F5F4F55
:100B50009FBF542F432F322F2227280F311D411DB5
:100B6000511D82E0220F331F441F551F8A95D1F774
:100B7000B901CA010895019739F0880F991F880FAC
:100B8000991F02970197F1F70895789484B58260D0
:100B900084BD84B5816084BD85B5826085BD85B521
:100BA000816085BDEEE6F0E0808181608083E1E8D0
:100BB000F0E0108280818260808380818160808308
:100BC000E0E8F0E0808181608083E1EBF0E080810B
:100BD00084608083E0EBF0E0808181608083E1E9E4
:100BE000F0E0808182608083808181608083E0E9A1
:100BF000F0E0808181608083E1EAF0E080818260C2
:100C00008083808181608083E0EAF0E08081816080
:100C10008083E1E2F1E08081826080838081816075
:100C20008083E0E2F1E0808181608083EAE7F0E0A8
:100C30008081846080838081826080838081816004
:100C400080838081806880831092C10008951F9204
:100C50000F920FB60F920BB60F9211242F933F9362
:100C60004F938F939F93EF93FF934091C600E09132
:100C7000C302F091C40231969F012F7730703197F3
:100C80008091C5029091C6022817390739F0ED5BB3
:100C9000FD4F40833093C4022093C302FF91EF9134
:100CA0009F918F914F913F912F910F900BBE0F907D
:100CB0000FBE0F901F9018951F920F920FB60F92B4
:100CC0000BB60F9211242F933F934F938F939F93C3
:100CD000EF93FF934091CE00E0914703F0914803DA
:100CE00031969F012F773070319780914903909111
:100CF0004A032817390739F0E953FD4F40833093F1
:100D0000480320934703FF91EF919F918F914F915B
:100D10003F912F910F900BBE0F900FBE0F901F9021
:100D200018951F920F920FB60F920BB60F921124C7
:100D30002F933F934F938F939F93EF93FF93409104
:100D4000D600E091CB03F091CC0331969F012F7731
:100D5000307031978091CD039091CE0328173907D9
:100D600039F0E55BFC4F40833093CC032093CB03F9
:100D7000FF91EF919F918F914F913F912F910F9004
:100D80000BBE0F900FBE0F901F9018951F920F92E1
:100D90000FB60F920BB60F9211242F933F934F93E0
:100DA0008F939F93EF93FF9340913601E0914F040F
:100DB000F091500431969F012F77307031978091D8
:100DC0005104909152042817390739F0E153FC4F30
:100DD00040833093500420934F04FF91EF919F91F3
:100DE0008F914F913F912F910F900BBE0F900FBE9F
:100DF0000F901F901895CF93DF93EC019A01AB01F0
:100E0000E885F985203081EE380780E0480780E0EA
:100E1000580709F449C081E090E00A8802C0880FB1
:100E2000991F0A94E2F7808360E079E08DE390E017
:100E30000E944E282150304040405040CA01B90124
:100E400022E030E040E050E00E944E28EC81FD813D
:100E50003083EE81FF812083EA85FB85208141E09C
:100E600050E0CA010E8402C0880F991F0A94E2F76D
:100E7000282B2083EA85FB852081CA010F8402C0CC
:100E8000880F991F0A94E2F7282B2083EA85FB85B7
:100E90008081088802C0440F551F0A94E2F7842B12
:100EA0008083DF91CF910895108220E130E0CECF92
:100EB000DC011296ED91FC911397E058FF4F2191C0
:100EC000319180819181281B390B2F773070C901B6
:100ED0000895DC011296ED91FC911397EE57FF4FA8
:100EE0002081318192918291E058F04082179307DE
:100EF00019F42FEF3FEF05C0E20FF31F8081282F79
:100F000030E0C9010895DC011296ED91FC91139730
:100F1000DF01AE57BF4F2D913C911197E058FF4F25
:100F200080819181E058F0408217930719F42FEFE8
:100F30003FEF0BC0E20FF31F80812F5F3F4F2F77F2
:100F400030702D933C93282F30E0C9010895DC01C7
:100F50001296ED91FC911397EE57FF4F808191818E
:100F6000929382930895FC01A085B18521898C918B
:100F700090E0022E02C0959587950A94E2F780FFD3
:100F8000F6CF0484F585E02D6083089527E132E0F3
:100F9000309354042093530483E492E090935604D6
:100FA0008093550485EC90E0909358048093570407
:100FB00084EC90E090935A048093590480EC90E084
:100FC00090935C0480935B0481EC90E090935E04CA
:100FD00080935D0486EC90E09093600480935F04BE
:100FE000E4E0E093610473E07093620467E060936F
:100FF000630455E05093640441E0409365043093EA
:1010000067042093660487EC92E0909369048093D0
:1010100068048DEC90E090936B0480936A048CECF0
:1010200090E090936D0480936C0488EC90E0909332
:101030006F0480936E0489EC90E090937104809328
:1010400070048EEC90E09093730480937204E093AC
:1010500074047093750460937604509377044093FE
:10106000780430937A04209379048BE493E090938E
:101070007C0480937B0485ED90E090937E048093C4
:101080007D0484ED90E09093800480937F0480ED54
:1010900090E0909382048093810481ED90E090939E
:1010A00084048093830486ED90E09093860480937B
:1010B0008504E093870470938804609389045093B7
:1010C0008A0440938B0430938D0420938C048FEC1E
:1010D00093E090938F0480938E0485E391E0909346
:1010E00091048093900484E391E09093930480931F
:1010F000920480E391E0909395048093940481E3BB
:1011000091E0909397048093960486E391E0909306
:10111000990480939804E0939A0470939B046093DD
:101120009C0450939D0440939E0408950F931F9335
:10113000CF93DF938C01EB0109C02196D801ED918B
:10114000FC910190F081E02DC8011995688166231A
:10115000A1F7DF91CF911F910F910895EF92FF9228
:101160000F931F93CF93DF938C017B01EA010CC097
:10117000D7016D917D01D801ED91FC910190F08135
:10118000E02DC80119952197209791F7DF91CF9114
:101190001F910F91FF90EF900895DC01ED91FC916C
:1011A0000280F381E02D199508952F923F924F927E
:1011B0005F926F927F928F929F92AF92BF92CF92E7
:1011C000DF92EF92FF920F931F93DF93CF93CDB7F0
:1011D000DEB7A0970FB6F894DEBF0FBECDBF1C01DF
:1011E0006A017B01411551056105710549F440E330
:1011F00050E060E070E020E030E00E946D0954C0F3
:10120000882499245401422E55246624772401E031
:1012100010E00C0F1D1F080D191DC701B601A30119
:1012200092010E942C28F80160830894811C911C73
:10123000A11CB11CC701B601A30192010E942C2878
:10124000C901DA016C017D01C114D104E104F1048A
:10125000F1F681E0E82EF12CEC0EFD1EE80CF91CF5
:101260003E010894611C711CD501C4010197A109BC
:10127000B1096C01C818D90814C0F601EE0DFF1DA4
:1012800040814A3010F4405D01C0495C50E060E0AC
:1012900070E0C10120E030E00E946D090894E1088F
:1012A000F1086E147F0449F7A0960FB6F894DEBFDC
:1012B0000FBECDBFCF91DF911F910F91FF90EF90A7
:1012C000DF90CF90BF90AF909F908F907F906F9066
:1012D0005F904F903F902F900895EF92FF920F9361
:1012E0001F93CF93DF93EC017A018B012115310518
:1012F00041F4E881F9810190F081E02D642F199586
:101300001BC02A303105B1F477FF10C04DE250E028
:1013100060E070E020E030E00E946D0910950095DB
:10132000F094E094E11CF11C011D111DCE01B801E7
:10133000A7012AE00E94D508DF91CF911F910F915C
:10134000FF90EF900895EF92FF920F931F937B0110
:101350009A010027F7FC0095102FB801A7010E9401
:101360006D091F910F91FF90EF900895EF92FF92FA
:101370000F931F939A01E62EFF2400E010E0B801BE
:10138000A7010E946D091F910F91FF90EF900895A2
:101390000F931F938C014DE050E060E070E020E07F
:1013A00030E00E946D09C8014AE050E060E070E062
:1013B00020E030E00E946D091F910F9108950F9376
:1013C0001F938C010E94CD08C8010E94C8091F917B
:1013D0000F910895CF92DF92EF92FF920F931F9398
:1013E0008C016B019A01EE24D7FCE094FE2CB7012E
:1013F000A6010E946D09C8010E94C8091F910F91A2
:10140000FF90EF90DF90CF9008958230B9F0833055
:1014100028F4882351F0813051F50AC0843011F14D
:101420008430E8F0853019F520C010926E000895E0
:1014300080916F008D7F80936F0008958091700080
:101440008D7F8093700081E08093B0008091B10027
:10145000887F84608093B1001092B3000895109249
:10146000710008951092720008951092730008950B
:101470001F93182F80911202811711F09FEF06C061
:10148000EFE4F2E094918FEF80931202892F0E9493
:10149000050A812F60E00E94DA041F9108951F92CF
:1014A0000F920FB60F920BB60F9211242F933F930A
:1014B0004F935F936F937F938F939F93AF93BF935C
:1014C000EF93FF9380919F049091A004A091A104B9
:1014D000B091A2040097A105B10551F1E091A304D8
:1014E000F091A40480819091A50489278083809144
:1014F0009F049091A004A091A104B091A204181699
:1015000019061A061B06C4F480919F049091A0044A
:10151000A091A104B091A2040197A109B1098093FF
:101520009F049093A004A093A104B093A20404C0CC
:10153000809112020E94380AFF91EF91BF91AF9102
:101540009F918F917F916F915F914F913F912F91DB
:101550000F900BBE0F900FBE0F901F9018954F92DB
:101560005F926F927F928F929F92AF92BF92CF9233
:10157000DF92EF92FF920F931F93CF93DF93EC01D3
:101580002A013B0178018901CB01BA01A801970129
:101590000E94012787FF5DC0C801B701A301920126
:1015A0000E948A244B015C012EA53FA548A959A998
:1015B0000E940C278E01025C1F4FF80120813181AF
:1015C000428153810E9458256B017C016EA77FA741
:1015D00088AB99ABC501B401F8012081318142810A
:1015E00053810E9458259B01AC016AA97BA98CA953
:1015F0009DA90E940C276AAB7BAB8CAB9DABC7014E
:10160000B60120E030E040E85FE30E9401271816B1
:101610002CF480E090E0A0E8BFE30EC0C701B60163
:1016200020E030E040E050E00E945125882344F45F
:1016300080E090E0A0E0B0E08EA79FA7A8ABB9AB98
:101640004AAE5BAE6CAE7DAEEE9688829982AA827F
:10165000BB82DF91CF911F910F91FF90EF90DF90B0
:10166000CF90BF90AF909F908F907F906F905F9042
:101670004F9008956F927F928F929F92AF92BF92F8
:10168000CF92DF92EF92FF920F931F93CF93DF934E
:10169000EC015A016B0178018901CB01BA01A80163
:1016A00097010E94012787FF46C0C801B701A60124
:1016B00095010E948A243B014C012AA53BA54CA51B
:1016C0005DA50E940C27FE01EA5BFF4F208131815E
:1016D000428153810E9458257B018C016AA77BA718
:1016E0008CA79DA720E030E040E85FE30E9401273F
:1016F00018162CF480E090E0A0E8BFE30EC0C8010B
:10170000B70120E030E040E050E00E9451258823FE
:1017100044F480E090E0A0E0B0E08AA79BA7ACA7EB
:10172000BDA7CE5BDF4FA992B992C992D9926882C8
:1017300079828A829B82DF91CF911F910F91FF90D6
:10174000EF90DF90CF90BF90AF909F908F907F9061
:101750006F9008952F923F924F925F926F927F9277
:101760008F929F92AF92BF92CF92DF92EF92FF92B1
:101770000F931F93DF93CF93CDB7DEB728970FB6A4
:10178000F894DEBF0FBECDBF1C012A013B0148010A
:101790005901CD82DE82EF82F886CB01BA0120E0CA
:1017A00030E040E050E00E945125882309F4B7C0A2
:1017B000C501B40120E030E040E050E00E94512536
:1017C00087FDADC0C701B60120E030E040E050E049
:1017D0000E94512587FDA3C0D1011C964D925D92B8
:1017E0006D927C921F97F101808A918AA28AB38AB6
:1017F000C48AD58AE68AF78A65A176A187A190A5D1
:101800000E94F12520E030E04AE754E40E94582588
:1018100069837A838B839C83C501B40120E030E027
:1018200040E050E00E945125882359F40F2EF0E04B
:10183000AF2EF0E0BF2EF0E0CF2EF0E0DF2EF02D47
:1018400010C060E070E080E89FE3A50194010E9471
:10185000582529813A814B815C810E940C275B01CC
:101860006C01D10199968C918823E9F1C601B501EB
:1018700020E030E040E050E00E945125882351F103
:10188000F10160817181828193812481358146815A
:1018900057810E940C277B018C01C301B201A60174
:1018A00095010E940C279B01AC01C801B7010E9461
:1018B00058259B01AC01D101D2966D917D918D91FE
:1018C0009C91D5970E940C27F10162AB73AB84AB5E
:1018D00095AB09C080E090E0A0E0B0E0F10182AB00
:1018E00093ABA4ABB5ABD1014D925D926D927C925E
:1018F0001397F101A482B582C682D7826D817E8161
:101900008F81988529813A814B815C810E9458257D
:10191000D10118966D937D938D939C931B97289678
:101920000FB6F894DEBF0FBECDBFCF91DF911F91F0
:101930000F91FF90EF90DF90CF90BF90AF909F906E
:101940008F907F906F905F904F903F902F90089571
:101950000F931F93CF93DF93EC0188A1DE01AE5B61
:10196000BF4F8E010A5B1F4F882319F0EE8DFF8D4C
:1019700002C0EA8DFB8D60817181828193812D91FE
:101980003D914D915C910E948A24F8012081318122
:10199000428153810E9458256EAB7FAB88AF99AFCF
:1019A0008EA99FA9A8ADB9AD8AA79BA7ACA7BDA7D3
:1019B000E88DF98D60817181828193812AAD3BAD83
:1019C0004CAD5DAD0E948A24FE01FE9620813181DE
:1019D000428153810E9458256EA77FA788AB99AB9F
:1019E00080E090E0A0E0B0E08AAB9BABACABBDABDD
:1019F000DF91CF911F910F9108950F931F93CF9374
:101A0000DF93EC018B016115710531F089A5882305
:101A100019F4CE010E94A80C19A6012B11F081E047
:101A200089A7DF91CF911F910F9108952F923F9237
:101A30004F925F926F927F928F929F92AF92BF92DE
:101A4000CF92DF92EF92FF920F931F93CF93DF938A
:101A5000EC01161617060CF049C01B01442437FC94
:101A60004094542CC201B1010E94F3255B016C012A
:101A70006DA17EA18FA198A50E94F1257B018C010B
:101A8000C601B501A80197010E9458253B014C01F0
:101A90006C817D818E819F81A40193010E940C271E
:101AA0006C837D838E839F83C801B701A601950156
:101AB0000E9458259B01AC016AA97BA98CA99DA90C
:101AC0000E940C276AAB7BAB8CAB9DAB688579859C
:101AD0008A859B85A40193010E940C2768877987DA
:101AE0008A879B872DA23EA24FA258A6DF91CF9155
:101AF0001F910F91FF90EF90DF90CF90BF90AF902C
:101B00009F908F907F906F905F904F903F902F901D
:101B100008952F923F924F925F926F927F928F9291
:101B20009F92AF92BF92CF92DF92EF92FF920F936C
:101B30001F93DF93CF9300D000D0CDB7DEB7865B85
:101B40009F4FDC011C92AA54B040BE83AD8399968E
:101B50008C91882309F4C1C10E94870569837A8327
:101B60008B839C83ED81FE8181A192A1A3A1B4A16D
:101B7000E980FA800B811C81E816F9060A071B0729
:101B800008F4ABC1E2ACF3AC04AD15ADFE96A08099
:101B9000B180C280D380FE97FE83ED83008CF18DEF
:101BA000E02D6081718182819381A80197010E945B
:101BB0008A24A60195010E9458253B014C0120E092
:101BC00030E040E85FE30E94012718165CF40F2E16
:101BD000F0E06F2EF0E07F2EF0E88F2EFFE39F2ED7
:101BE000F02D14C0C401B30120E030E040E050E02B
:101BF0000E945125882354F40F2EF0E06F2EF0E060
:101C00007F2EF0E08F2EF0E09F2EF02DAD81BE8173
:101C10005C96ED91FC915D976081718182819381E9
:101C2000A80197010E948A24A60195010E945825C7
:101C30007B018C0120E030E040E85FE30E94012757
:101C400018165CF40F2EF0E0EF2EF0E0FF2EF0E817
:101C50000F2FFFE31F2FF02D14C0C801B70120E0A4
:101C600030E040E050E00E945125882354F40F2ECC
:101C7000F0E0EF2EF0E0FF2EF0E00F2FF0E01F2F4E
:101C8000F02DC801B701A40193010E948A245B01D1
:101C90006C01ED81FE81E2A4F3A404A515A5C801A1
:101CA000B70120E030E040E85FE30E94012788238D
:101CB00054F0C601B50120E030E040E050E00E9461
:101CC0000127181634F1C801B70120E030E040E0E8
:101CD00050E00E945125181654F0C601B50120E0CD
:101CE00030E040E050E00E94512587FD12C0AD81F8
:101CF000BE81D2966D917D918D919C91D597A601D3
:101D000095010E948B24ED81FE8162AB73AB84ABA5
:101D100095ABAD81BE819E962D903D904D905C908F
:101D2000D19790968C919097882301F15E96ED91D2
:101D3000FC915F97AE5BBF4F60817181828193811F
:101D40002D913D914D915C910E948A24ED81FE81FF
:101D5000EA5BFF4F20813181428153810E945825E7
:101D6000ED81FE8166AB77AB80AF91AFAD81BE8177
:101D700014966D917D918D919C911797D2962D918E
:101D80003D914D915C91D5970E940C279B01AC0130
:101D9000C601B5010E948B247B018C01C401B301F3
:101DA000A20191010E948A24ED81FE812085318566
:101DB000428553850E940C279B01AC01C801B701E5
:101DC0000E948A24AD81BE812D913D914D915C91FF
:101DD0000E940C27ED81FE8126A937A940AD51ADA7
:101DE0000E948B246B017C0120E030E040E050E059
:101DF0000E94512588235CF40F2EF0E0CF2EF0E0F6
:101E0000DF2EF0E0EF2EF0E0FF2EF02D14C0C70122
:101E1000B60120E030E040E85FE30E940127181699
:101E200054F40F2EF0E0CF2EF0E0DF2EF0E8EF2E8E
:101E3000FFE3FF2EF02DAD81BE819A96CD92DD920B
:101E4000ED92FC929D97FD0166A677A680AA91AAC5
:101E5000028D138DEA5BFF4FC701B60120813181EE
:101E6000428153810E940C27ED81FE81EE5BFF4F82
:101E700020813181428153810E948B24D8016D934E
:101E80007D938D939C931397ED81FE8125A136A1BF
:101E900047A150A581A192A1A3A1B4A1820F931F34
:101EA000A41FB51F81A392A3A3A3B4A3E980FA80C2
:101EB0000B811C818E159F05A007B10740F42E0DE4
:101EC0003F1D401F511F21A332A343A354A3ED8103
:101ED000FE81E65BFF4F81E0808326960FB6F89483
:101EE000DEBF0FBECDBFCF91DF911F910F91FF904D
:101EF000EF90DF90CF90BF90AF909F908F907F90AA
:101F00006F905F904F903F902F9008952F923F9247
:101F10004F925F926F927F928F929F92AF92BF92F9
:101F2000CF92DF92EF92FF920F931F93DF93CF93A5
:101F300000D00F92CDB7DEB74C017A8369831A01C6
:101F40003C832B832701380140E050E060E070E0E3
:101F500000E010EC2FE734E40E94AF0AC40140E037
:101F600050E060E070E000E010E02FE733E40E9412
:101F70003A0B88EE93E0A0E0B0E0F40185A396A3CD
:101F8000A7A3B0A7C401B301A20196018501CA8C21
:101F9000DB8CEC8CFD8C0E94AA0B0E948705F4015F
:101FA00061A372A383A394A311A6338E228E898189
:101FB0009A81918F808F8B819C81958F848F0F90D8
:101FC0000F900F900F90CF91DF911F910F91FF9085
:101FD000EF90DF90CF90BF90AF909F908F907F90C9
:101FE0006F905F904F903F902F9008958F929F92A7
:101FF000AF92BF92CF92DF92EF92FF920F931F9317
:10200000DF93CF93CDB7DEB74C0100D00F92888914
:102010009989AA89BB89EDB7FEB781839283A3838F
:10202000B483C4010E94860FF40110A20F900F9098
:102030000F900F90C4010E94A80CCF91DF911F91C7
:102040000F91FF90EF90DF90CF90BF90AF909F9057
:102050008F9008952F923F924F925F926F927F924E
:102060008F929F92AF92BF92CF92DF92EF92FF92A8
:102070000F931F93DF93CF93CDB7DEB766970FB65D
:10208000F894DEBF0FBECDBF988B8F875A8B498BDC
:102090006830710509F401C2693071051CF56330BF
:1020A000710509F49BC0643071055CF46130710501
:1020B00009F446C0623071050CF049C0672BB9F1D4
:1020C000D2C26530710509F454C1653071050CF454
:1020D00022C16630710509F487C16730710509F0C6
:1020E000C2C236C26E30710509F48CC26F30710500
:1020F0006CF46A30710509F452C26A3071050CF44F
:102100003EC26D30710509F0AEC276C26031710514
:1021100009F47FC2603171050CF478C26131710538
:1021200009F48BC26336710509F09DC2A2C28F8586
:10213000988963E070E040E052E00E94E61D99C299
:102140008F85988967E072E00E94251E92C2233035
:1021500031050CF427C2A989BA896D917C91882731
:1021600077FD8095982F0E94F32520E030E04AEF1C
:1021700054E40E940C2729ED30EA45E553E40E941F
:1021800058252B013C01E989FA89628173818827EE
:1021900077FD8095982F0E94F32520E030E04AEFEC
:1021A00054E40E940C2729ED30EA45E553E40E94EF
:1021B00058254B015C01A989BA8914966D917C91CF
:1021C0001597882777FD8095982F0E94F3256B013E
:1021D0007C018F859889B301A20198C02330310515
:1021E0000CF4E0C1E0907F06F0908006009181063B
:1021F00010918206C801B7010E9455256B877C8724
:102200008D879E87C801B7010E946F271B012C0193
:10221000E989FA8960817181882777FD8095982FF7
:102220000E94F3253B014C01A989BA8912966D9150
:102230007C911397882777FD8095982F0E94F3252E
:102240005B016C01C401B3012B853C854D855E8526
:102250000E940C277B018C01C601B501A2019101EE
:102260000E940C279B01AC01C801B7010E948A247F
:1022700020E030E040E951E40E940C2720917306F1
:102280003091740640917506509176060E948B2419
:102290006B8B7C8B8D8B9E8BC401B301A201910152
:1022A0000E940C277B018C01C601B5012B853C8562
:1022B0004D855E850E940C279B01AC01C801B701CA
:1022C0000E948B2420E030E040E951E40E940C277A
:1022D00020917706309178064091790650917A06E0
:1022E0000E948B244B015C01E989FA896481758124
:1022F000882777FD8095982F0E94F3256B017C013C
:102300008F8598894B895C896D897E8995018401C7
:102310000E942D202FC1223031050CF443C1A98920
:10232000BA896D917C91882777FD8095982F0E94BE
:10233000F3252BED3FE049E450E40E940C2720E018
:1023400030E044E353E40E9458250E948E146B0150
:102350007C0120E030E048EC52E40E940C270E940F
:10236000C0259B01AC018FEF9FEFB9010E94AD1E0C
:1023700028C0223031050CF415C1A989BA896D91A4
:102380007C91882777FD8095982F0E94F3252BED6F
:102390003FE049E450E40E940C2720E030E044E3B1
:1023A00053E40E94582520917F0630918006409189
:1023B0008106509182060E948B240E948E146B012C
:1023C0007C01E989FA8962817381882777FD80958C
:1023D000982F0E94F3258B019C018F859889B70166
:1023E000A6010E949220C6C0609173067091740687
:1023F000809175069091760629ED30EA45E553E423
:102400000E940C2720E030E04AEF54E40E94582557
:102410000E94C0255B016C0160917706709178067F
:102420008091790690917A0629ED30EA45E553E4EA
:102430000E940C2720E030E04AEF54E40E94582527
:102440000E94C0257B018C0160917F0670918006FF
:10245000809181069091820620E030E044E353E4CD
:102460000E940C272BED3FE049E450E40E945825E0
:102470000E94C025FE01359626E0DF011D922A95B7
:10248000E9F7BE82AD82F886EF827A8769878F8509
:102490009889BF0143E050E0E3C0233031050CF4DC
:1024A00081C0E989FA8960817181882777FD8095EB
:1024B000982F0E94F32520E030E04AEF54E40E9478
:1024C0000C2729ED30EA45E553E40E945825AB017D
:1024D000BC0183E090E00E944421A989BA89129648
:1024E0006D917C911397882777FD8095982F0E9496
:1024F000F32520E030E04AEF54E40E940C2729ED58
:1025000030EA45E553E40E945825AB01BC0184E064
:1025100090E00E944421E989FA89648175818827C5
:1025200077FD8095982F0E94F3252BED3FE049E43D
:1025300050E40E940C2720E030E044E353E40E9482
:102540005825AB01BC0185E090E00E94442112C0F7
:10255000121613063CF5A989BA898D919C910197B1
:1025600021F48F85988961E003C08F85988960E0A8
:102570000E94CF218F85988961E070E078C01216A3
:10258000130684F4E989FA8960817181882777FDCF
:102590008095982F0E94F3250E948B21EBCF22304B
:1025A00031052CF48F8598896EEF7FEF60C08F85A1
:1025B000988961E070E00E94AD1EA989BA896D9189
:1025C0007C91882777FD8095982F0E94F3256B01D9
:1025D0007C01E989FA8962817381882777FD80957A
:1025E000982F0E94F3258B019C018F859889B70154
:1025F000A6010E94EB203DC00E94CA2381E0809387
:10260000C304B8CF81E08093C404B4CF1092C40453
:10261000B1CF8091710690917206181619062CF4AC
:102620008F85988960E070E022C0892B09F0A2CFE5
:102630008F85988962E070E01AC080916106909160
:1026400062069A83898380916506909166069C83D1
:102650008B838F859889BE016F5F7F4F42E050E08A
:102660000E94551E06C08F8598896FEF7FEF0E94EC
:10267000AD1E66960FB6F894DEBF0FBECDBFCF91EC
:10268000DF911F910F91FF90EF90DF90CF90BF905F
:10269000AF909F908F907F906F905F904F903F9002
:1026A0002F90089586EA94E061E041E00E94422480
:1026B00088EA94E062E041E00E9442240895CF93CA
:1026C000DF93EC01BC0197FF04C066277727681BE6
:1026D000790B88EA94E00E94F3231C161D0624F46B
:1026E00088EA94E061E003C088EA94E062E00E9436
:1026F0000824DF91CF910895CF93DF93EC01BC01C3
:1027000097FF04C066277727681B790B86EA94E059
:102710000E94F323D7FF04C086EA94E061E003C07F
:1027200086EA94E062E00E940824DF91CF91089548
:102730000F931F93DF93CF9300D00F92CDB7DEB7E7
:10274000CE01019661E041E00E94422489819A8194
:102750009093A7048093A604CE01039662E041E023
:102760000E9442248B819C819093A9048093A804A9
:1027700006EA14E0C80160E00E94F323C80161E0AA
:102780000E94082408EA14E0C80160E00E94F323D4
:10279000C80161E00E9408240F900F900F900F90E5
:1027A000CF91DF911F910F91089581E08093C20432
:1027B0001092C3041092C5041092C40408952F927D
:1027C0003F924F925F926F927F928F929F92AF92C1
:1027D000BF92CF92DF92EF92FF920F931F9300D0A0
:1027E0000F9298EC492E94E0592E8CEC282E84E020
:1027F000382E80E090E0A0E8BFE3EDB7FEB781831C
:102800009283A383B48384ED94E060ED74E0A2012D
:1028100091010F2EF0E0EF2EF0E0FF2EF0E00F2FF1
:10282000F0E41F2FF02D0F2EF0E0AF2EF0E0BF2EC2
:10283000F0EACF2EF0E4DF2EF02D0E94F60F0F2EDF
:10284000F0E06F2EF0E47F2EFCE98F2EF6E49F2E51
:10285000F02DEDB7FEB7618272828382948283E2AB
:1028600095E06FE175E0A20191010F2EF0E0EF2EEF
:10287000F0E0FF2EF0E60F2FF1E41F2FF02D0F2ECA
:10288000F0E0AF2EF0E0BF2EF0ECCF2EFFE3DF2E16
:10289000F02D0E94F60F80E090E4ACE9B5E4EDB7CE
:1028A000FEB781839283A383B48386E895E066E7CD
:1028B00075E04EE655E02EE735E00E94F60FEDB7E5
:1028C000FEB7618272828382948281ED95E06AE72D
:1028D00075E042E755E022E835E00F2EF0E0EF2EFC
:1028E000F0E0FF2EF8EC0F2FF1E41F2FF02D0E94E7
:1028F000F60F0F900F900F900F901F910F91FF9078
:10290000EF90DF90CF90BF90AF909F908F907F908F
:102910006F905F904F903F902F900895EF92FF92AD
:102920000F931F937B018C012BED3FE049E450E4B2
:102930000E94012718164CF4C801B7012BED3FE0A7
:1029400049E450E40E948B2417C0C801B7012BED65
:102950003FE049E450EC0E94512518162CF4EE2D6E
:102960007F2D802F612F1EC0C801B7012BED3FE0E6
:1029700049E450E40E948A242BED3FE049EC50E406
:102980000E9458250E94BA272BED3FE049EC50ECFD
:102990000E940C279B01AC01C801B7010E948B2447
:1029A000E62F692F2E2F372F482F562FB901CA0136
:1029B0001F910F91FF90EF9008954F925F926F9249
:1029C0007F928F929F92AF92BF92CF92DF92EF92BF
:1029D000FF920F931F93DF93CF93CDB7DEB760972E
:1029E0000FB6F894DEBF0FBECDBFE0906106F09049
:1029F000620600916306109164068091240690910E
:102A00002506A0912606B091270657016801A81A4D
:102A1000B90ACA0ADB0A2091650630916606409120
:102A20006706509168068091200690912106A0913A
:102A30002206B091230639014A01681A790A8A0AE6
:102A40009B0AE0922406F092250600932606109336
:102A500027062093200630932106409322065093A8
:102A600023060E94950520911C0630911D06409179
:102A70001E0650911F06621B730B840B950B0E9460
:102A8000F12569877A878B879C870E9495056093DB
:102A90001C0670931D0680931E0690931F06C401AA
:102AA000B3016A0D7B1D8C1D9D1D0E94F32520E046
:102AB00030E040E05FE30E940C276D877E878F87C0
:102AC000988B2FE7422E26E0522EC401B3016A19DB
:102AD0007B098C099D090E94F32524ED36E742E32A
:102AE00055E40E94582520917F0630918006409140
:102AF0008106509182060E948B247B018C01C801C3
:102B00000E9455256D837E838F839887B701C80106
:102B10000E946F2769837A838B839C83C601B501EA
:102B20000E94F32529853A854B855C850E945825AE
:102B300020E034E244E759E40E940C275B016C0179
:102B4000C401B3010E94F32529853A854B855C8534
:102B50000E94582520E034E244E759E40E940C2703
:102B60009B01AC01C601B5010E948B2420E030E03E
:102B700040E05FE30E940C2760937B0670937C0625
:102B800080937D0690937E06B701C8010E948E1443
:102B900060937F06709380068093810690938206EF
:102BA00082010C5010406D857E858F8598892D811E
:102BB0003E814F8158850E940C279B01AC01F80192
:102BC00060817181828193810E948B24F8016083EE
:102BD00071838283938388EF9FEF480E591E6D8522
:102BE0007E858F85988929813A814B815C810E94FD
:102BF0000C279B01AC01F20160817181828193817C
:102C00000E948B24F2016083718382839383609698
:102C10000FB6F894DEBF0FBECDBFCF91DF911F91ED
:102C20000F91FF90EF90DF90CF90BF90AF909F906B
:102C30008F907F906F905F904F9008950F931F93A8
:102C4000CF93DF938C01EB0180913106882369F4E7
:102C50000E94870560932D0670932E0680932F06A1
:102C60009093300681E0809331068091C3048823DD
:102C700041F01092310681E08093C2041092C304A7
:102C800004C08091C404882331F019821882F801AD
:102C90001182108226C019821882F80111821082D6
:102CA0000E94870520912D0630912E0640912F0617
:102CB00050913006621B730B840B950B0E94F1251B
:102CC0002091B2043091B3044091B4045091B50402
:102CD0000E94012718162CF481E08093C204109200
:102CE0003106DF91CF911F910F9108950F931F939C
:102CF000CF93DF938C01EB0180912C06882369F43C
:102D00000E948705609328067093290680932A06FF
:102D100090932B0681E080932C068091C304882336
:102D200041F010922C0681E08093C2041092C304FB
:102D30003CC08091C4048823C1F56091AE047091B9
:102D4000AF048091B0049091B1040E94C0257983B2
:102D50006883F801718360830E94870520912806AB
:102D60003091290640912A0650912B06621B730B65
:102D7000840B950B0E94F1252091B2043091B3048D
:102D80004091B4045091B5040E940127181694F4A0
:102D900081E08093C20410922C068091AC04909143
:102DA000AD0462E070E00E94AD1E19821882F80145
:102DB00011821082DF91CF911F910F910895CF92D0
:102DC000DF92EF92FF920F931F93CF93DF936C01EB
:102DD000EB0180913406882309F04BC0109236062F
:102DE0001092350680E090E0A0E0B0E08093C80447
:102DF0009093C904A093CA04B093CB048093D004E9
:102E00009093D104A093D204B093D3048093CC04C4
:102E10009093CD04A093CE04B093CF0484ED94E0BE
:102E20000E94A80C84ED94E040E050E46CE976EC5C
:102E300000E010E42CE936E40E94AF0A84ED94E04F
:102E400040E050E06FE773EC00E010E02FE733E480
:102E50000E943A0B84ED94E062E070E00E94160D4F
:102E600084ED94E061E070E00E94FD0C81E08093CD
:102E700034068091C304882341F01092340681E027
:102E80008093C2041092C30404C08091C4048823B8
:102E900031F019821882F6011182108204C18091EA
:102EA000C6049091C7048130910509F050C060912B
:102EB000AE047091AF048091B0049091B10460931E
:102EC000CC047093CD048093CE049093CF042091D2
:102ED0007B0630917C0640917D0650917E062093C2
:102EE000D0043093D1044093D2045093D3040E9471
:102EF0008A247B018C0120E030E040E050E00E9419
:102F00000127181664F4C801B70120E030E04AE751
:102F100054E40E94512588230CF0A1C00BC0C801C5
:102F2000B70120E030E04AE754EC0E940127181670
:102F30000CF095C082E090E09093C7048093C604A3
:102F40000E948705709336066093350688C08230EC
:102F5000910509F040C08091AE049091AF04A0911A
:102F6000B004B091B1048093CC049093CD04A093AD
:102F7000CE04B093CF0480917B0690917C06A09103
:102F80007D06B0917E068093D0049093D104A093E7
:102F9000D204B093D3040E94870520913506309166
:102FA0003606442737FD4095542F621B730B840B64
:102FB000950B0E94F1252091B2043091B304409109
:102FC000B4045091B5040E94012718160CF047C0B4
:102FD00083E090E040C0039709F041C080E090E0BA
:102FE000A0E0B0E08093CC049093CD04A093CE04F5
:102FF000B093CF04E0907B06F0907C0600917D06B4
:1030000010917E06E092D004F092D1040093D20495
:103010001093D304C801B70120E030E040E050E055
:103020000E94012718165CF4C801B70120E030E0C7
:103030004AE754E40E94512588238CF40AC0C80151
:10304000B70120E030E04AE754EC0E94012718164F
:1030500034F484E090E09093C7048093C60484ED38
:1030600094E00E94890D8091C6049091C704049752
:1030700059F419821882F6011182108281E080933E
:10308000C204109234060FC06091C8047091C90444
:103090008091CA049091CB040E94C02579836883F3
:1030A000F60171836083DF91CF911F910F91FF90A3
:1030B000EF90DF90CF9008956F927F928F929F92C2
:1030C000AF92BF92CF92DF92EF92FF920F931F9336
:1030D000CF93DF933C014B0180913206882309F0A6
:1030E0008AC080E090E0A0E0B0E080936E0590930D
:1030F0006F05A0937005B09371058093720590934E
:103100007305A0937405B09375058093760590932D
:103110007705A0937805B093790580937A0590930D
:103120007B05A0937C05B0937D0580937E059093ED
:103130007F05A0938005B0938105809382059093CD
:103140008305A0938405B093850586E895E00E94E9
:10315000A80C86E895E043ED5CE66CE07CEB03EDC3
:103160001CE62CE03CE30E94AF0A86E895E062E0B2
:1031700070E00E94160D0091AE041091AF042091F2
:10318000B0043091B104B901A801705886E895E007
:103190000E943A0B86E895E061E070E00E94FD0C29
:1031A00081ED95E00E94A80C81ED95E062E070E071
:1031B0000E94160D81ED95E04BED5FE069E470EC47
:1031C0000BED1FE029E430E40E94AF0A81ED95E0A9
:1031D00040E050E06FE773EC00E010E02FE733E4ED
:1031E0000E943A0B81ED95E061E070E00E94FD0CD9
:1031F00081E0809332068091C304882341F01092CD
:10320000320681E08093C2041092C30404C080910E
:10321000C404882339F0F40111821082F301118271
:1032200010823EC36091BA047091BB048091BC04CB
:103230009091BD04209177063091780640917906EF
:1032400050917A060E948A247B018C016091B60419
:103250007091B7048091B8049091B90420917306DD
:103260003091740640917506509176060E948A242A
:103270009B01AC01C801B7010E94FE245B016C01F7
:1032800020917F0630918006409181065091820600
:103290000E948A240E948E147B018C0160937A051F
:1032A00070937B0580937C0590937D0520E030E052
:1032B00040E050E00E94012718165CF4C801B701F5
:1032C0002BED3FE049EC5FE30E940127181674F0F4
:1032D0000AC0C801B7012BED3FE049EC5FEB0E944B
:1032E000512587FD03C0C1E0D0E01EC0C601B50175
:1032F0002BED3FE049E450E40E948B2420917F06AF
:103300003091800640918106509182060E948A2465
:103310000E948E1460937A0570937B0580937C05E0
:1033200090937D05CFEFDFEF80917A0590917B053B
:10333000A0917C05B0917D05B05880937A0590935B
:103340007B05A0937C05B0937D056091B6047091D8
:10335000B7048091B8049091B9042091730630911C
:10336000740640917506509176060E948A247B016E
:103370008C016091BA047091BB048091BC0490915F
:10338000BD042091770630917806409179065091DE
:103390007A060E948A245B016C01C801B701A8016A
:1033A00097010E940C277B018C01C601B501A60183
:1033B00095010E940C279B01AC01C801B7010E9436
:1033C0008B240E9479277B018C01662777276C1B51
:1033D0007D0B882777FD8095982F0E94F325A80103
:1033E00097010E940C277B018C01609376057093F6
:1033F0007705809378059093790520E030E040E0F0
:1034000050E00E94012718165CF4C801B70120E0C3
:1034100030E04AE753E40E94512588236CF50AC046
:10342000C801B70120E030E04AE753EC0E940127D1
:10343000181614F5E090AE04F090AF040091B004BB
:103440001091B104C801B70120E030E048E452E433
:103450000E94012718160CF054C10F2EF0E0EF2E39
:10346000F0E0FF2EF8E40F2FF2E41F2FF02D40E0E4
:1034700050E068E472EC48C1C801B70120E030E0D8
:1034800040E050E00E94012718165CF4C801B70123
:1034900020E030E04AEF53E40E94512588236CF588
:1034A0000AC0C801B70120E030E04AEF53EC0E94A7
:1034B0000127181614F5E090AE04F090AF040091C7
:1034C000B0041091B104C801B70120E030E040E73A
:1034D00052E40E94012718160CF013C10F2EF0E0E1
:1034E000EF2EF0E0FF2EF0E70F2FF2E41F2FF02D6C
:1034F00040E050E060E772EC07C1C801B70120E08E
:1035000030E040E050E00E94012718165CF4C8014A
:10351000B70120E030E84BE354E40E9451258823B2
:103520006CF50AC0C801B70120E030E84BE354EC69
:103530000E940127181614F5E090AE04F090AF0435
:103540000091B0041091B104C801B70120E030E04F
:1035500040EA52E40E94012718160CF0D2C00F2E48
:10356000F0E0EF2EF0E0FF2EF0EA0F2FF2E41F2F35
:10357000F02D40E050E060EA72ECC6C0C801B7012F
:1035800020E030E040E050E00E94012718165CF493
:10359000C801B70120E030E04AE754E40E94512519
:1035A00088236CF50AC0C801B70120E030E04AE783
:1035B00054EC0E940127181614F5E090AE04F09028
:1035C000AF040091B0041091B104C801B70120E02C
:1035D00030E048EC52E40E94012718160CF091C02C
:1035E0000F2EF0E0EF2EF0E0FF2EF8EC0F2FF2E4BC
:1035F0001F2FF02D40E050E068EC72EC85C0C80150
:10360000B70120E030E040E050E00E9401271816AA
:103610005CF4C801B70120E030E44CE954E40E94B6
:10362000512588236CF50AC0C801B70120E030E4B9
:103630004CE954EC0E940127181614F5E090AE04F2
:10364000F090AF040091B0041091B104C801B7012B
:1036500020E030E046E153E40E94012718160CF008
:1036600050C00F2EF0E0EF2EF0E0FF2EF6E10F2F0E
:10367000F3E41F2FF02D40E050E066E173EC44C00E
:10368000C801B70120E030E040E050E00E9401278F
:10369000181664F4C801B70120E030E84BEB54E49D
:1036A0000E94512588230CF041C00AC0C801B7010F
:1036B00020E030E84BEB54EC0E9401271816B4F5DB
:1036C000E090AE04F090AF040091B0041091B1040A
:1036D000C801B70120E030E048E453E40E9401272C
:1036E00018167CF40F2EF0E0EF2EF0E0FF2EF8E439
:1036F0000F2FF3E41F2FF02D40E050E068E473EC4F
:1037000003C0B801A701705886E895E098018701C9
:103710000E943A0B81ED95E040E050E066E173ECE9
:1037200000E010E026E133E40E943A0BE0907605D9
:10373000F09077050091780510917905C801B701DF
:1037400020E030E040E050E00E94012718165CF4D1
:10375000C801B70129EB3DE34BE352E40E94512538
:10376000882374F40AC0C801B70129EB3DE34BE399
:1037700052EC0E94012718161CF482E090E002C06F
:1037800081E090E09093C7048093C60481ED95E0BA
:103790000E94890D86E895E00E94890D8091C604FB
:1037A0009091C704029739F4F40111821082F30159
:1037B0001182108252C060916E0570916F058091E8
:1037C00070059091710520917205309173054091BB
:1037D0007405509175050E948B240E94C025F40148
:1037E0007183608360916E0570916F0580917005A3
:1037F0009091710520917205309173054091740587
:10380000509175050E948A240E94C025F30171839E
:103810006083F401808191818F3F910521F01CF03C
:103820008FEF90E006C081509F4F2CF481E09FEF16
:10383000F40191838083F301808191818F3F910511
:1038400021F01CF08FEF90E006C081509F4F2CF4C8
:1038500081E09FEFF301918380838091C604909172
:10386000C7040297E9F42091AC043091AD04FFEF56
:103870002F3F3F0761F08091C504882341F4C901BF
:1038800062E070E00E94AD1E81E08093C5040E945A
:10389000D323882329F481E08093C2041092320656
:1038A000DF91CF911F910F91FF90EF90DF90CF901C
:1038B000BF90AF909F908F907F906F900895CF9220
:1038C000DF92EF92FF920F931F93CF93DF936C01E0
:1038D000EB0180913306882309F04AC080E090E034
:1038E000A0E0B0E08093C8049093C904A093CA04F8
:1038F000B093CB0480931F0590932005A0932105DE
:10390000B09322058093CC049093CD04A093CE0471
:10391000B093CF0483E295E00E94A80C83E295E087
:103920004BED5FE069E470EC0BED1FE029E430E45F
:103930000E94AF0A0091AE041091AF042091B00430
:103940003091B104B901A801705883E295E00E945A
:103950003A0B83E295E062E070E00E94160D83E28C
:1039600095E061E070E00E94FD0C81E080933306F9
:103970008091C304882341F01092330681E0809344
:10398000C2041092C30404C08091C404882331F09F
:1039900019821882F6011182108296C06091BE04CD
:1039A0007091BF048091C0049091C10420917F0662
:1039B0003091800640918106509182060E948A24AF
:1039C0000E948E147B018C0117FB109517F910953E
:1039D000E0921F05F0922005009321051093220527
:1039E000C801B70120E030E040E050E00E9401272C
:1039F00018165CF4C801B70120E537E746ED5CE333
:103A00000E945125882374F40AC0C801B70120E53B
:103A100037E746ED5CEB0E94012718161CF482E0A4
:103A200090E002C081E090E09093C7048093C604C8
:103A300083E295E00E94890D8091C6049091C704AD
:103A4000029731F419821882F6011182108219C08E
:103A5000E090C804F090C9040091CA041091CB040E
:103A6000C801B7010E94C0257983688317FB1095B0
:103A700017F91095C801B7010E94C025F60171839E
:103A800060838091C6049091C7040297E9F4209165
:103A9000AC043091AD04FFEF2F3F3F0761F0809100
:103AA000C504882341F4C90162E070E00E94AD1EA4
:103AB00081E08093C5040E94D323882329F481E008
:103AC0008093C20410923306DF91CF911F910F9122
:103AD000FF90EF90DF90CF900895EF92FF920F93B9
:103AE0001F93CF93DF9383E594E00E9458077C01F6
:103AF000C0E0D0E060C083E594E00E9483078A3094
:103B0000910509F1A0913706B09138068E329105E2
:103B100009F047C0A15BB94F1C9200913906109182
:103B20003A068FE496E00E948829F801EE0FFF1F05
:103B3000E55CF94F918380830F5F1F4F10933A0626
:103B40000093390629C0E0913706F0913806E15B11
:103B5000F94F10820091390610913A068FE496E0F1
:103B60000E948829F801EE0FFF1FE55CF94F918351
:103B7000808360913F067091400602501040809112
:103B80003D0690913E0641E456E098010E942A10BD
:103B900010923A06109239061092380610923706A3
:103BA00009C0FD01E15BF94F80831196B09338069F
:103BB000A09337062196CE15DF050CF49CCFDF913C
:103BC000CF911F910F91FF90EF900895AF92BF9208
:103BD000CF92DF92EF92FF920F931F937C016B01C4
:103BE0005A0103E514E0C8016FEF7FEF4AE050E0AF
:103BF0000E94A309C8016EE240E050E00E94B609AD
:103C0000C801B7014AE050E00E94A309C8016EE272
:103C100040E050E00E94B609C801B6014AE050E019
:103C20000E94A309C8016EE240E050E00E94B6097C
:103C3000C801B5010E94DF091F910F91FF90EF901D
:103C4000DF90CF90BF90AF900895CF92DF92EF9228
:103C5000FF920F931F938C016B0153E5E52E54E007
:103C6000F52EC7016FEF7FEF4AE050E00E94A309F5
:103C7000C7016EE240E050E00E94B609C701B801FA
:103C80004AE050E00E94A309C7016EE240E050E024
:103C90000E94B609C701B6010E94DF091F910F916A
:103CA000FF90EF90DF90CF900895CF92DF92EF9248
:103CB000FF920F931F93CF93DF938C016B01EA0167
:103CC00083E594E06FEF7FEF4AE050E00E94A309A4
:103CD00083E594E06EE240E050E00E94B60983E59F
:103CE00094E0B8014AE050E00E94A30983E594E023
:103CF0006EE240E050E00E94B609760100E010E07C
:103D0000219713C0F701619171917F0183E594E0E0
:103D10004AE050E00E94A30983E594E06EE240E0AF
:103D200050E00E94B6090F5F1F4F0C171D0754F398
:103D3000CC0FDD1FCC0DDD1D6881798183E594E01A
:103D40004AE050E00E94EA09DF91CF911F910F9164
:103D5000FF90EF90DF90CF900895CF92DF92EF9297
:103D6000FF920F931F938C016B01E3E5EE2EE4E0CD
:103D7000FE2EC7016FEF7FEF4AE050E00E94A309DB
:103D8000C7016EE240E050E00E94B609C701B801E9
:103D90004AE050E00E94A309C7016EE240E050E013
:103DA0000E94B609C701B6014AE050E00E94EA0944
:103DB0001F910F91FF90EF90DF90CF90089583E5D2
:103DC00094E040E052EC61E070E00E94FB06089550
:103DD00084E10E940F0560915D0670915E0681305E
:103DE000910561F420916506309166064091670661
:103DF000509168066130710561F410C0209165062C
:103E000030916606409167065091680661307105F1
:103E100029F4215030404040504004C02F5F3F4FB4
:103E20004F4F5F4F209365063093660640936706B9
:103E3000509368069093600680935F06089585E12D
:103E40000E940F0560915F067091600681309105B8
:103E500061F42091650630916606409167065091A5
:103E600068066130710561F410C0209165063091DB
:103E7000660640916706509168066130710529F425
:103E80002F5F3F4F4F4F5F4F04C0215030404040A5
:103E90005040209365063093660640936706509322
:103EA000680690935E0680935D06089583E10E9404
:103EB0000F056091590670915A068130910561F4A1
:103EC000209161063091620640916306509164062C
:103ED0006130710561F410C0209161063091620675
:103EE00040916306509164066130710529F42150B8
:103EF00030404040504004C02F5F3F4F4F4F5F4F16
:103F000020936106309362064093630650936406E3
:103F100090935C0680935B06089582E10E940F05F2
:103F200060915B0670915C068130910561F420918F
:103F300061063091620640916306509164066130DB
:103F4000710561F410C020916106309162064091C4
:103F50006306509164066130710529F42F5F3F4F6D
:103F60004F4F5F4F04C0215030404040504020939D
:103F70006106309362064093630650936406909303
:103F80005A068093590608951092610610926206AF
:103F900010926306109264061092650610926606EF
:103FA000109267061092680682E160E00E94410468
:103FB00083E160E00E94410485E160E00E944104E9
:103FC00084E160E00E94410482E161E00E94DA0441
:103FD00083E161E00E94DA0485E161E00E94DA0495
:103FE00084E161E00E94DA0482E10E940F0590936F
:103FF0005A068093590683E10E940F0590935C0650
:1040000080935B0685E10E940F0590935E06809386
:104010005D0684E10E940F059093600680935F0621
:1040200085E06DE87FE141E050E00E943D0284E0E0
:1040300066E57FE141E050E00E943D0282E06FE1F1
:104040007FE141E050E00E943D0283E068EE7EE1C6
:1040500041E050E00E943D0208952F923F924F921E
:104060005F926F927F928F929F92AF92BF92CF9208
:10407000DF92EF92FF920F931F93CF93DF931C0178
:104080004A015B0128013901C0916B06D0916C0691
:10409000CE0101966FE070E00E94192820916D0614
:1040A00030916E068217930751F184E0CC0FDD1F2B
:1040B0008A95E1F7E0916906F0916A06EC0FFD1F21
:1040C00082E090E091838083338222828482958291
:1040D000A682B7824086518662867386C486D5865C
:1040E000E686F78680916B0690916C0601966FE0EC
:1040F00070E00E94192890936C0680936B06DF9104
:10410000CF911F910F91FF90EF90DF90CF90BF90D4
:10411000AF909F908F907F906F905F904F903F9067
:104120002F9008956F927F928F929F92AF92BF923D
:10413000CF92DF92EF92FF920F931F93CF93DF9373
:104140003C016A017B0148015901C0916B06D09185
:104150006C06CE0101966FE070E00E941928209154
:104160006D0630916E068217930731F194E0CC0F03
:10417000DD1F9A95E1F7E0916906F0916A06EC0F70
:10418000FD1F81E090E09183808373826282C4820C
:10419000D582E682F78280869186A286B386809158
:1041A0006B0690916C0601966FE070E00E941928F2
:1041B00090936C0680936B06DF91CF911F910F91C6
:1041C000FF90EF90DF90CF90BF90AF909F908F9037
:1041D0007F906F9008956F927F928F929F92AF928F
:1041E000BF92CF92DF92EF92FF920F931F93CF93E4
:1041F000DF933C016A017B0148015901C0916B06C4
:10420000D0916C06CE0101966FE070E00E941928F3
:1042100020916D0630916E068217930731F134E0DC
:10422000CC0FDD1F3A95E1F7E0916906F0916A063F
:10423000EC0FFD1F87E090E09183808373826282A0
:10424000C482D582E682F78280869186A286B38672
:1042500080916B0690916C0601966FE070E00E9471
:10426000192890936C0680936B06DF91CF911F9174
:104270000F91FF90EF90DF90CF90BF90AF909F9005
:104280008F907F906F900895CF92DF92EF92FF9280
:104290000F931F93CF93DF936C017A018B01C09131
:1042A0006B06D0916C06CE0101966FE070E00E9423
:1042B000192820916D0630916E068217930711F12F
:1042C00044E0CC0FDD1F4A95E1F7E0916906F091DB
:1042D0006A06EC0FFD1FD182C082E482F58206835C
:1042E00017838FEF9FEF9383828380916B0690916A
:1042F0006C0601966FE070E00E94192890936C069E
:1043000080936B06DF91CF911F910F91FF90EF90FB
:10431000DF90CF900895EF92FF920F931F93CF936A
:10432000DF937B018C01C0916B06D0916C06CE01AE
:1043300001966FE070E00E94192820916D0630917F
:104340006E068217930721F154E0CC0FDD1F5A95BA
:10435000E1F7E0916906F0916A06EC0FFD1F86E037
:1043600090E091838083E482F582068317838FEF48
:104370009FEF9383828380916B0690916C060196E8
:104380006FE070E00E94192890936C0680936B0692
:10439000DF91CF911F910F91FF90EF900895CF92F1
:1043A000DF92EF92FF920F931F93CF93DF93EC0175
:1043B000662309F086C083E090E040E050E060E0D2
:1043C00070E00E94442184E090E040E050E060E032
:1043D00070E00E94442185E090E040E050E060E021
:1043E00070E00E9444218FEF9FEF4BED5FE069EC9E
:1043F0007FE300E010E026E133E40E9492208FEF9B
:104400009FEF40E050E06CE872EC00E010E02AEF33
:1044100034E40E94EB2084E090E046E755EC6EE83F
:1044200074E40E94442185E090E04BED5FE069EC8C
:104430007FE30E9444218FEF9FEF40E050E060E077
:1044400070E007E21DE02AEE34E40F2EF0E0CF2EFC
:10445000F0E0DF2EF6E1EF2EF3E4FF2EF02D0E94C8
:104460002D208FEF9FEF40E050E060E070E097017B
:1044700086010E9492208FEF9FEF40E050E06CE8B1
:1044800072EC00E010E02AEF34E40E94EB2083E0BD
:1044900090E046E755EC6EE874E40E9444218FEF0B
:1044A0009FEF4EE750ED6CE175E407E21DE02AEE68
:1044B00034E40E942D20CE0140E050E060E070E046
:1044C00085C083E090E040E050E060E070E00E9452
:1044D000442184E090E040E050E060E070E00E9421
:1044E000442185E090E04BED5FE069E470E40E94D8
:1044F00044218FEF9FEF4BED5FE069EC7FE300E03D
:1045000010E026E133E40E9492208FEF9FEF40E01D
:1045100050E06CE872EC00E010E02AEF34E40E9416
:10452000EB2084E090E046E755EC6EE874E40E94EE
:10453000442185E090E04BED5FE069EC7FE30E9471
:1045400044218FEF9FEF40E050E060E070E007E231
:104550001DE02AEE34E40F2EF0E0CF2EF0E0DF2E47
:10456000F6E1EF2EF3E4FF2EF02D0E942D208FEFC9
:104570009FEF4BED5FE069E470E4970186010E94D4
:1045800092208FEF9FEF40E050E06CE872EC00E08B
:1045900010E02AEF34E40E94EB2083E090E04DEF3E
:1045A0005FE762ED76E40E9444218FEF9FEF45E4E0
:1045B00052ED67EC76E407E21DE02AEE34E40E9457
:1045C0002D20CE014BED5FE069E470E49701860198
:1045D0000E949220DF91CF911F910F91FF90EF9059
:1045E000DF90CF90089540916D0650916E068091B6
:1045F0006B0690916C068417950709F4CAC0109257
:10460000C2041092C3041092C50481E090E090931C
:10461000C7048093C604CA0164E0880F991F6A9595
:10462000E1F7E0916906F0916A06E80FF91F208131
:1046300031813093AB042093AA04828193819093BB
:10464000AD048093AC042330310509F472C02430EA
:10465000310554F421303105C1F02230310534F5F3
:10466000232B09F448C08BC02530310509F47BC0E9
:10467000253031050CF46AC02630310509F44CC0F0
:104680002730310509F07BC036C084819581A68131
:10469000B7818093BE049093BF04A093C004B093ED
:1046A000C10480859185A285B3851CC084819581D4
:1046B000A681B7818093B6049093B704A093B80401
:1046C000B093B90480859185A285B3858093BA049F
:1046D0009093BB04A093BC04B093BD0484859585DE
:1046E000A685B7858093AE049093AF04A093B004E1
:1046F000B093B10444C084819581A681B781809331
:10470000AE049093AF04A093B004B093B10480853D
:104710009185A285B38504C084819581A681B781E6
:104720008093B2049093B304A093B404B093B504FF
:1047300026C084819581A681B7818093B604909329
:10474000B704A093B804B093B90419C084819581CB
:10475000A681B7818093BA049093BB04A093BC0454
:10476000B093BD040CC084819581A681B7818093EC
:10477000BE049093BF04A093C004B093C104CA01C7
:1047800001966FE070E00E94192890936E06809366
:104790006D06089510926C0610926B0610926E06CC
:1047A00010926D06089540E020916B0630916C06E2
:1047B00080916D0690916E062817390709F441E043
:1047C000842F089580EF90E00E94832880936906EB
:1047D00090936A0610926C0610926B0610926E0609
:1047E00010926D060895FC01E081E13019F0E2308D
:1047F00071F407C0862F90E090939D0080939C00F9
:104800000895862F90E09093890080938800089502
:10481000FC01E081E13021F0E23079F48DE001C06B
:104820008CE0613019F0623041F404C060E00E9415
:10483000DA04089561E00E94DA040895E0E9F0E006
:104840009081996090838770886080939100109226
:104850009D0010929C0083E061E00E944104089555
:10486000E0E8F0E0908191689083877088608093A1
:10487000810010928900109288008BE061E00E9414
:10488000410408951F93FC01142F6083418361301C
:1048900019F06230C1F40CC08CE061E00E94410468
:1048A0008CE060E00E94DA04812F0E941E240BC07D
:1048B0008DE061E00E9441048DE060E00E94DA0436
:1048C000812F0E9430241F91089580E090E0A0E0A5
:1048D000B0E08093730690937406A0937506B0932E
:1048E00076068093770690937806A0937906B09326
:1048F0007A0680937B0690937C06A0937D06B09306
:104900007E0680937F0690938006A0938106B093E5
:10491000820608955058BB27AA270ED027C2F0D18F
:1049200030F0F5D120F031F49F3F11F41EF4C0C1F6
:104930000EF4E095E7FBB6C1E92F3AD280F3BA173F
:10494000620773078407950718F071F49EF552C249
:104950000EF4E0950B2EBA2FA02D0B01B90190019A
:104960000C01CA01A0011124FF27591B99F0593FDE
:1049700050F4503E68F11A16F040A22F232F342F26
:104980004427585FF3CF469537952795A795F04074
:104990005395C9F77EF41F16BA0B620B730B840B89
:1049A000BAF09150A1F0FF0FBB1F661F771F881F41
:1049B000C2F70EC0BA0F621F731F841F48F4879599
:1049C00077956795B795F7959E3F08F0B3CF939588
:1049D000880F08F09927EE0F97958795089590D145
:1049E00058F080E891E009F49EEF91D128F040E87A
:1049F00051E059F45EEF09C05BC1FCC1E92FE078DA
:104A0000D7D168F3092E052AC1F3261737074807BF
:104A1000590738F00E2E07F8E02569F0E025E0642C
:104A20000AC0EF6307F8009407FADB01B9019D01A2
:104A3000DC01CA01AD01EF934AD098D10AD05F9151
:104A4000552331F02BED3FE049E450FD49EC63CFB5
:104A50000895DF93DD27B92FBF7740E85FE316168F
:104A6000170648075B0710F4D92FCFD19F938F9378
:104A70007F936F937CD2E4EEF0E01DD177D12F913C
:104A80003F914F915F91D4D1DD2349F09058A2EA34
:104A90002AED3FE049EC5FE3D0785D274DDFDF9101
:104AA00065C1DCD008F481E0089539D1E3956FC188
:104AB0000CD05CC12CD140F023D130F021F45F3F09
:104AC00019F0F0C0511197C1F3C072D198F3992336
:104AD000C9F35523B1F3951B550BBB27AA276217C2
:104AE0007307840738F09F5F5F4F220F331F441F07
:104AF000AA1FA9F333D00E2E3AF0E0E830D091503F
:104B00005040E695001CCAF729D0FE2F27D0660F2B
:104B1000771F881FBB1F261737074807AB07B0E86A
:104B200009F0BB0B802DBF01FF2793585F4F2AF080
:104B30009E3F510568F0B6C05EC15F3FECF3983E02
:104B4000DCF3869577956795B795F7959F5FC9F7DD
:104B5000880F911D9695879597F90895E1E0660F66
:104B6000771F881FBB1F621773078407BA0720F0DF
:104B7000621B730B840BBA0BEE1F88F7E095089548
:104B800004D06894B11137C108951AD188F09F57A5
:104B900090F0B92F9927B751A0F0D1F0660F771F89
:104BA000881F991F1AF0BA95C9F712C0B13081F069
:104BB00021D1B1E008951EC1672F782F8827B85FF3
:104BC00039F0B93FCCF3869577956795B395D9F7CA
:104BD0003EF490958095709561957F4F8F4F9F4FD4
:104BE0000895E89409C097FB3EF4909580957095E0
:104BF00061957F4F8F4F9F4F9923A9F0F92F96E929
:104C0000BB279395F695879577956795B795F1119D
:104C1000F8CFFAF4BB0F11F460FF1BC06F5F7F4F3A
:104C20008F4F9F4F16C0882311F096E911C077234C
:104C300021F09EE8872F762F05C0662371F096E855
:104C4000862F70E060E02AF09A95660F771F881F24
:104C5000DAF7880F9695879597F90895990F0008C8
:104C6000550FAA0BE0E8FEEF16161706E807F9073E
:104C7000C0F012161306E407F50798F0621B730BD9
:104C8000840B950B39F40A2661F0232B242B252B5A
:104C900021F408950A2609F4A140A6958FEF811DFD
:104CA000811D089597F99F6780E870E060E008959E
:104CB0009FEF80EC0895DF93CF931F930F93FF92A4
:104CC000EF92DF927B018C01689405C0DA2EEF0130
:104CD000AFD0FE01E894A59125913591459155916C
:104CE000AEF3EF0129DEFE019701A801DA9479F70E
:104CF000DF90EF90FF900F911F91CF91DF9108957A
:104D000000240A94161617061806090608950024AA
:104D10000A9412161306140605060895C9CF50D03A
:104D2000E8F3E894E0E0BB279F57F0F02AED3FE07E
:104D300049EC06C0EE0FBB0F661F771F881F28F0D7
:104D4000B23A62077307840728F0B25A620B730BFA
:104D5000840BE3959A9572F7803830F49A95BB0FDF
:104D6000661F771F881FD2F7904828C1092E039429
:104D7000000C11F4882352F0BB0F40F4BF2B11F448
:104D800060FF04C06F5F7F4F8F4F9F4F0895EF9379
:104D9000E0FF06C0A2EA2AED3FE049EC5FEBCCDD84
:104DA000E5DF0F90039401FC9058E1E1F1E019C1B7
:104DB00057FD9058440F551F59F05F3F71F04795CC
:104DC000880F97FB991F61F09F3F79F087950895B1
:104DD000121613061406551FF2CF4695F1DF08C0D0
:104DE000161617061806991FF1CF869571056105ED
:104DF00008940895E894BB2766277727CB0197F995
:104E000008952CDF08F48FEF08959B01AC0160E05A
:104E100070E080E89FE34CCE0BD0A8CF71DF28F084
:104E200076DF18F0952309F03DCF42CF1124E3CF70
:104E3000BFDFA0F3959FD1F3950F50E0551F629F00
:104E4000F001729FBB27F00DB11D639FAA27F00DE3
:104E5000B11DAA1F649F6627B00DA11D661F829F0A
:104E60002227B00DA11D621F739FB00DA11D621FEF
:104E7000839FA00D611D221F749F3327A00D611D0C
:104E8000231F849F600D211D822F762F6A2F1124EE
:104E90009F5750408AF0E1F088234AF0EE0FFF1F41
:104EA000BB1F661F771F881F91505040A9F79E3F78
:104EB000510570F0F7CE9FCF5F3FECF3983EDCF3E7
:104EC000869577956795B795F795E7959F5FC1F7B5
:104ED000FE2B880F911D9695879597F908959F93BE
:104EE0001EDF0F9007FCEE5F52CF11F40EF4E0CE00
:104EF00063C066DFD0F39923D9F3CEF39F57550BE8
:104F000087FF68D00024A0E640EA900180585695BB
:104F1000979528F4805C660F771F881F20F026176E
:104F20003707480730F4621B730B840B20293129A3
:104F30004A2BA69517940794202531254A2758F720
:104F4000660F771F881F20F026173707480730F4B1
:104F5000620B730B840B200D311D411DA09581F751
:104F6000B901842F9158880F9695879508959B01D4
:104F7000AC0152CF47D020F09F3708F43CCF01C09E
:104F80001BC0882371F4772321F09850872B762F4C
:104F900007C0662311F499270DC09051862B70E04D
:104FA00060E02AF09A95660F771F881FDAF7880F5E
:104FB0009695879597F908959F3F31F0915020F489
:104FC000879577956795B795880F911D96958795E5
:104FD00097F9089591505040660F771F881FD2F7B8
:104FE00008959F938F937F936F93FF93EF939B010C
:104FF000AC0112DFEF91FF915EDE2F913F914F9157
:105000005F910ACFDDDEA0F0BEE7B91788F4BB27B9
:105010009F3860F41616B11D672F782F8827985F88
:10502000F7CF869577956795B11D93959639C8F317
:10503000089597FB092E07260AD077FD04D049D0A2
:1050400006D000201AF4709561957F4F0895F6F709
:10505000909581959F4F0895A1E21A2EAA1BBB1B24
:10506000FD010DC0AA1FBB1FEE1FFF1FA217B30734
:10507000E407F50720F0A21BB30BE40BF50B661F4A
:10508000771F881F991F1A9469F76095709580950E
:1050900090959B01AC01BD01CF01089597FB092EAE
:1050A00005260ED057FD04D0D7DF0AD0001C38F4F7
:1050B00050954095309521953F4F4F4F5F4F089544
:1050C000F6F790958095709561957F4F8F4F9F4F24
:1050D0000895AA1BBB1B51E107C0AA1FBB1FA6173F
:1050E000B70710F0A61BB70B881F991F5A95A9F791
:1050F00080959095BC01CD010895EE0FFF1F05909E
:10510000F491E02D1994CF93DF93BC018230910587
:1051100010F462E070E0A0918506B0918606ED0182
:10512000E0E0F0E040E050E021C0888199818617FE
:10513000970769F48A819B81309719F09383828362
:1051400004C09093860680938506FE0134C06817DC
:10515000790738F44115510519F08417950708F4BB
:10516000AC01FE018A819B819C01E9012097E9F64F
:1051700041155105A9F1CA01861B970B049708F444
:10518000BA01E0E0F0E02AC08D919C91119784175C
:105190009507F9F46417750781F412968D919C9127
:1051A0001397309719F09383828304C090938606F7
:1051B00080938506FD0132964FC0CA01861B970B6E
:1051C000FD01E80FF91F6193719302978D939C93F2
:1051D00043C0FD01828193819C01D9011097A1F602
:1051E0008091830690918406892B41F480910E0270
:1051F00090910F0290938406809383064091100251
:10520000509111024115510541F44DB75EB780919F
:105210000C0290910D02481B590B2091830630918E
:10522000840624173507B0F4CA01821B930B861736
:10523000970780F0AB014E5F5F4F8417950750F0E2
:10524000420F531F5093840640938306F9016193E4
:10525000719302C0E0E0F0E0CF01DF91CF910895BB
:10526000CF93DF93009709F450C0EC0122971B8283
:105270001A82A0918506B0918606109709F140E048
:1052800050E0AC17BD0708F1BB83AA83FE01219152
:105290003191E20FF31FAE17BF0779F48D919C9106
:1052A0001197280F391F2E5F3F4F3983288312969D
:1052B0008D919C9113979B838A834115510571F4BD
:1052C000D0938606C093850620C012968D919C913E
:1052D0001397AD01009711F0DC01D3CFFA01D3830E
:1052E000C28321913191E20FF31FCE17DF0769F4DA
:1052F00088819981280F391F2E5F3F4FFA01318332
:1053000020838A819B8193838283DF91CF9108954B
:10531000FC0188279927E89421912032E9F329306C
:1053200010F02E30C8F32B3241F02D3239F468944E
:1053300004C00E94A629820F911D219120532A307A
:10534000C0F31EF4909581959F4F08957AE0979F42
:10535000902D879F802D910D11240895F894FFCFF3
:1053600061737365727600506F6E67002000870668
:105370000000FF00000000B3079608AE085807833E
:06538000076907A7070002
:00000001FF
